{
  "_format": "hh-sol-artifact-1",
  "contractName": "LugusSwapper",
  "sourceName": "contracts/LugusSwapper.sol",
  "abi": [
    {
      "inputs": [],
      "stateMutability": "nonpayable",
      "type": "constructor"
    },
    {
      "anonymous": false,
      "inputs": [
        {
          "indexed": true,
          "internalType": "address",
          "name": "user",
          "type": "address"
        },
        {
          "indexed": false,
          "internalType": "uint256",
          "name": "amountIn",
          "type": "uint256"
        },
        {
          "indexed": false,
          "internalType": "uint256",
          "name": "amountOut",
          "type": "uint256"
        }
      ],
      "name": "Swap",
      "type": "event"
    },
    {
      "inputs": [
        {
          "internalType": "address",
          "name": "_mockStakingAddress",
          "type": "address"
        }
      ],
      "name": "claimAllAndSwapForEth",
      "outputs": [],
      "stateMutability": "nonpayable",
      "type": "function"
    },
    {
      "inputs": [
        {
          "internalType": "address",
          "name": "_mockStakingAddress",
          "type": "address"
        },
        {
          "internalType": "address",
          "name": "_outToken",
          "type": "address"
        }
      ],
      "name": "claimAllAndSwapForToken",
      "outputs": [],
      "stateMutability": "nonpayable",
      "type": "function"
    },
    {
      "inputs": [
        {
          "internalType": "address",
          "name": "_mockStakingAddress",
          "type": "address"
        },
        {
          "internalType": "address",
          "name": "_token",
          "type": "address"
        }
      ],
      "name": "claimAndSwapForEth",
      "outputs": [],
      "stateMutability": "nonpayable",
      "type": "function"
    },
    {
      "inputs": [
        {
          "internalType": "address",
          "name": "_mockStakingAddress",
          "type": "address"
        },
        {
          "internalType": "address",
          "name": "_inToken",
          "type": "address"
        },
        {
          "internalType": "address",
          "name": "_outToken",
          "type": "address"
        }
      ],
      "name": "claimAndSwapForToken",
      "outputs": [],
      "stateMutability": "nonpayable",
      "type": "function"
    },
    {
      "inputs": [],
      "name": "sushiSwapEthereumRouterAddress",
      "outputs": [
        {
          "internalType": "address",
          "name": "",
          "type": "address"
        }
      ],
      "stateMutability": "view",
      "type": "function"
    },
    {
      "inputs": [],
      "name": "sushiSwapMumbaiRouterAddress",
      "outputs": [
        {
          "internalType": "address",
          "name": "",
          "type": "address"
        }
      ],
      "stateMutability": "view",
      "type": "function"
    },
    {
      "inputs": [],
      "name": "uniswapV2Pair",
      "outputs": [
        {
          "internalType": "address",
          "name": "",
          "type": "address"
        }
      ],
      "stateMutability": "view",
      "type": "function"
    },
    {
      "inputs": [],
      "name": "uniswapV2Router",
      "outputs": [
        {
          "internalType": "contract IUniswapV2Router02",
          "name": "",
          "type": "address"
        }
      ],
      "stateMutability": "view",
      "type": "function"
    }
  ],
  "bytecode": "0x60a060405234801561001057600080fd5b50731b02da8cb0d097eb8d57a175b88c7d8b4799750673ffffffffffffffffffffffffffffffffffffffff1660808173ffffffffffffffffffffffffffffffffffffffff168152505060805161135261009760003960008181610177015281816105090152818161062901528181610725015281816107e5015261096c01526113526000f3fe608060405234801561001057600080fd5b50600436106100885760003560e01c8063737ddf041161005b578063737ddf0414610101578063946d6e141461011f578063aceb16a81461013b578063b86fe4571461015757610088565b80631694505e1461008d57806349bd5a5e146100ab57806355b63356146100c9578063704288e3146100e5575b600080fd5b610095610175565b6040516100a29190610b4f565b60405180910390f35b6100b3610199565b6040516100c09190610b8b565b60405180910390f35b6100e360048036038101906100de9190610be1565b6101bd565b005b6100ff60048036038101906100fa9190610c0e565b6102a8565b005b610109610395565b6040516101169190610b8b565b60405180910390f35b61013960048036038101906101349190610c4e565b6103ad565b005b61015560048036038101906101509190610c0e565b610441565b005b61015f6104d3565b60405161016c9190610b8b565b60405180910390f35b7f000000000000000000000000000000000000000000000000000000000000000081565b60008054906101000a900473ffffffffffffffffffffffffffffffffffffffff1681565b6000808273ffffffffffffffffffffffffffffffffffffffff166377329f35336040518263ffffffff1660e01b81526004016101f99190610b8b565b610c80604051808303816000875af1158015610219573d6000803e3d6000fd5b505050506040513d601f19601f8201168201806040525081019061023d9190610ee4565b9150915060005b60328160ff1610156102a25761028f828260ff166032811061026957610268610f26565b5b6020020151848360ff166032811061028457610283610f26565b5b6020020151336104eb565b808061029a90610f91565b915050610244565b50505050565b6000808373ffffffffffffffffffffffffffffffffffffffff166377329f35336040518263ffffffff1660e01b81526004016102e49190610b8b565b610c80604051808303816000875af1158015610304573d6000803e3d6000fd5b505050506040513d601f19601f820116820180604052508101906103289190610ee4565b9150915060005b60328160ff16101561038e5761037b828260ff166032811061035457610353610f26565b5b6020020151848360ff166032811061036f5761036e610f26565b5b6020020151863361087e565b808061038690610f91565b91505061032f565b5050505050565b731b02da8cb0d097eb8d57a175b88c7d8b4799750681565b60008373ffffffffffffffffffffffffffffffffffffffff166321c0b34233856040518363ffffffff1660e01b81526004016103ea929190610fba565b6020604051808303816000875af1158015610409573d6000803e3d6000fd5b505050506040513d601f19601f8201168201806040525081019061042d9190610fe3565b905061043b8184843361087e565b50505050565b60008273ffffffffffffffffffffffffffffffffffffffff166321c0b34233846040518363ffffffff1660e01b815260040161047e929190610fba565b6020604051808303816000875af115801561049d573d6000803e3d6000fd5b505050506040513d601f19601f820116820180604052508101906104c19190610fe3565b90506104ce8183336104eb565b505050565b731b02da8cb0d097eb8d57a175b88c7d8b4799750681565b8173ffffffffffffffffffffffffffffffffffffffff1663095ea7b37f0000000000000000000000000000000000000000000000000000000000000000856040518363ffffffff1660e01b815260040161054692919061101f565b6020604051808303816000875af1158015610565573d6000803e3d6000fd5b505050506040513d601f19601f820116820180604052508101906105899190611080565b506000600267ffffffffffffffff8111156105a7576105a6610cb7565b5b6040519080825280602002602001820160405280156105d55781602001602082028036833780820191505090505b50905082816000815181106105ed576105ec610f26565b5b602002602001019073ffffffffffffffffffffffffffffffffffffffff16908173ffffffffffffffffffffffffffffffffffffffff16815250507f000000000000000000000000000000000000000000000000000000000000000073ffffffffffffffffffffffffffffffffffffffff1663ad5c46486040518163ffffffff1660e01b8152600401602060405180830381865afa158015610692573d6000803e3d6000fd5b505050506040513d601f19601f820116820180604052508101906106b691906110ad565b816001815181106106ca576106c9610f26565b5b602002602001019073ffffffffffffffffffffffffffffffffffffffff16908173ffffffffffffffffffffffffffffffffffffffff168152505060008373ffffffffffffffffffffffffffffffffffffffff1663dd62ed3e307f00000000000000000000000000000000000000000000000000000000000000006040518363ffffffff1660e01b8152600401610761929190610fba565b602060405180830381865afa15801561077e573d6000803e3d6000fd5b505050506040513d601f19601f820116820180604052508101906107a29190610fe3565b90506107e36040518060600160405280602481526020016112f96024913982846001815181106107d5576107d4610f26565b5b602002602001015186610a05565b7f000000000000000000000000000000000000000000000000000000000000000073ffffffffffffffffffffffffffffffffffffffff1663791ac9478660008587426040518663ffffffff1660e01b81526004016108459594939291906111d3565b600060405180830381600087803b15801561085f57600080fd5b505af1158015610873573d6000803e3d6000fd5b505050505050505050565b6000600267ffffffffffffffff81111561089b5761089a610cb7565b5b6040519080825280602002602001820160405280156108c95781602001602082028036833780820191505090505b50905083816000815181106108e1576108e0610f26565b5b602002602001019073ffffffffffffffffffffffffffffffffffffffff16908173ffffffffffffffffffffffffffffffffffffffff168152505082816001815181106109305761092f610f26565b5b602002602001019073ffffffffffffffffffffffffffffffffffffffff16908173ffffffffffffffffffffffffffffffffffffffff16815250507f000000000000000000000000000000000000000000000000000000000000000073ffffffffffffffffffffffffffffffffffffffff16635c11d7958660008486426040518663ffffffff1660e01b81526004016109cc9594939291906111d3565b600060405180830381600087803b1580156109e657600080fd5b505af11580156109fa573d6000803e3d6000fd5b505050505050505050565b610aa184848484604051602401610a1f94939291906112ac565b6040516020818303038152906040527f5ea2b7ae000000000000000000000000000000000000000000000000000000007bffffffffffffffffffffffffffffffffffffffffffffffffffffffff19166020820180517bffffffffffffffffffffffffffffffffffffffffffffffffffffffff8381831617835250505050610aa7565b50505050565b60008151905060006a636f6e736f6c652e6c6f679050602083016000808483855afa5050505050565b600073ffffffffffffffffffffffffffffffffffffffff82169050919050565b6000819050919050565b6000610b15610b10610b0b84610ad0565b610af0565b610ad0565b9050919050565b6000610b2782610afa565b9050919050565b6000610b3982610b1c565b9050919050565b610b4981610b2e565b82525050565b6000602082019050610b646000830184610b40565b92915050565b6000610b7582610ad0565b9050919050565b610b8581610b6a565b82525050565b6000602082019050610ba06000830184610b7c565b92915050565b6000604051905090565b600080fd5b610bbe81610b6a565b8114610bc957600080fd5b50565b600081359050610bdb81610bb5565b92915050565b600060208284031215610bf757610bf6610bb0565b5b6000610c0584828501610bcc565b91505092915050565b60008060408385031215610c2557610c24610bb0565b5b6000610c3385828601610bcc565b9250506020610c4485828601610bcc565b9150509250929050565b600080600060608486031215610c6757610c66610bb0565b5b6000610c7586828701610bcc565b9350506020610c8686828701610bcc565b9250506040610c9786828701610bcc565b9150509250925092565b600080fd5b6000601f19601f8301169050919050565b7f4e487b7100000000000000000000000000000000000000000000000000000000600052604160045260246000fd5b610cef82610ca6565b810181811067ffffffffffffffff82111715610d0e57610d0d610cb7565b5b80604052505050565b6000610d21610ba6565b9050610d2d8282610ce6565b919050565b600067ffffffffffffffff821115610d4d57610d4c610cb7565b5b602082029050919050565b600080fd5b600081519050610d6c81610bb5565b92915050565b6000610d85610d8084610d32565b610d17565b90508060208402830185811115610d9f57610d9e610d58565b5b835b81811015610dc85780610db48882610d5d565b845260208401935050602081019050610da1565b5050509392505050565b600082601f830112610de757610de6610ca1565b5b6032610df4848285610d72565b91505092915050565b600067ffffffffffffffff821115610e1857610e17610cb7565b5b602082029050919050565b6000819050919050565b610e3681610e23565b8114610e4157600080fd5b50565b600081519050610e5381610e2d565b92915050565b6000610e6c610e6784610dfd565b610d17565b90508060208402830185811115610e8657610e85610d58565b5b835b81811015610eaf5780610e9b8882610e44565b845260208401935050602081019050610e88565b5050509392505050565b600082601f830112610ece57610ecd610ca1565b5b6032610edb848285610e59565b91505092915050565b600080610c808385031215610efc57610efb610bb0565b5b6000610f0a85828601610dd2565b925050610640610f1c85828601610eb9565b9150509250929050565b7f4e487b7100000000000000000000000000000000000000000000000000000000600052603260045260246000fd5b7f4e487b7100000000000000000000000000000000000000000000000000000000600052601160045260246000fd5b600060ff82169050919050565b6000610f9c82610f84565b915060ff8203610faf57610fae610f55565b5b600182019050919050565b6000604082019050610fcf6000830185610b7c565b610fdc6020830184610b7c565b9392505050565b600060208284031215610ff957610ff8610bb0565b5b600061100784828501610e44565b91505092915050565b61101981610e23565b82525050565b60006040820190506110346000830185610b7c565b6110416020830184611010565b9392505050565b60008115159050919050565b61105d81611048565b811461106857600080fd5b50565b60008151905061107a81611054565b92915050565b60006020828403121561109657611095610bb0565b5b60006110a48482850161106b565b91505092915050565b6000602082840312156110c3576110c2610bb0565b5b60006110d184828501610d5d565b91505092915050565b6000819050919050565b60006110ff6110fa6110f5846110da565b610af0565b610e23565b9050919050565b61110f816110e4565b82525050565b600081519050919050565b600082825260208201905092915050565b6000819050602082019050919050565b61114a81610b6a565b82525050565b600061115c8383611141565b60208301905092915050565b6000602082019050919050565b600061118082611115565b61118a8185611120565b935061119583611131565b8060005b838110156111c65781516111ad8882611150565b97506111b883611168565b925050600181019050611199565b5085935050505092915050565b600060a0820190506111e86000830188611010565b6111f56020830187611106565b81810360408301526112078186611175565b90506112166060830185610b7c565b6112236080830184611010565b9695505050505050565b600081519050919050565b600082825260208201905092915050565b60005b8381101561126757808201518184015260208101905061124c565b60008484015250505050565b600061127e8261122d565b6112888185611238565b9350611298818560208601611249565b6112a181610ca6565b840191505092915050565b600060808201905081810360008301526112c68187611273565b90506112d56020830186611010565b6112e26040830185610b7c565b6112ef6060830184610b7c565b9594505050505056fe756e69737761705632526f75746572202573202d2d2d2d2d202573202d2d2d2d2d202573a264697066735822122050688faec7a45ab10819eac12a2327e082fe9dc8c4d771315f80676867eff1e764736f6c63430008110033",
  "linkReferences": {},
  "deployedLinkReferences": {}
}