{
  "_format": "hh-sol-artifact-1",
  "contractName": "LugusAutomaticSwapper",
  "sourceName": "contracts/LugusAutomaticSwapper.sol",
  "abi": [
    {
      "inputs": [
        {
          "internalType": "uint256",
          "name": "updateInterval",
          "type": "uint256"
        }
      ],
      "stateMutability": "nonpayable",
      "type": "constructor"
    },
    {
      "inputs": [
        {
          "internalType": "bytes",
          "name": "",
          "type": "bytes"
        }
      ],
      "name": "checkUpkeep",
      "outputs": [
        {
          "internalType": "bool",
          "name": "upkeepNeeded",
          "type": "bool"
        },
        {
          "internalType": "bytes",
          "name": "",
          "type": "bytes"
        }
      ],
      "stateMutability": "view",
      "type": "function"
    },
    {
      "inputs": [],
      "name": "counter",
      "outputs": [
        {
          "internalType": "uint256",
          "name": "",
          "type": "uint256"
        }
      ],
      "stateMutability": "view",
      "type": "function"
    },
    {
      "inputs": [],
      "name": "interval",
      "outputs": [
        {
          "internalType": "uint256",
          "name": "",
          "type": "uint256"
        }
      ],
      "stateMutability": "view",
      "type": "function"
    },
    {
      "inputs": [],
      "name": "lastTimeStamp",
      "outputs": [
        {
          "internalType": "uint256",
          "name": "",
          "type": "uint256"
        }
      ],
      "stateMutability": "view",
      "type": "function"
    },
    {
      "inputs": [
        {
          "internalType": "bytes",
          "name": "",
          "type": "bytes"
        }
      ],
      "name": "performUpkeep",
      "outputs": [],
      "stateMutability": "nonpayable",
      "type": "function"
    },
    {
      "inputs": [
        {
          "internalType": "address",
          "name": "token",
          "type": "address"
        }
      ],
      "name": "setToken",
      "outputs": [],
      "stateMutability": "nonpayable",
      "type": "function"
    }
  ],
  "bytecode": "0x60a0604052732cef87a124095d476a6f44d5ebf0d8e2f0c5b4d6600160006101000a81548173ffffffffffffffffffffffffffffffffffffffff021916908373ffffffffffffffffffffffffffffffffffffffff160217905550732d6a20e20911a27d0b4952f88e1dc80f43f18562600260006101000a81548173ffffffffffffffffffffffffffffffffffffffff021916908373ffffffffffffffffffffffffffffffffffffffff1602179055507332f9e7f06d614903bd4fc0d6618e8008559b409c600360006101000a81548173ffffffffffffffffffffffffffffffffffffffff021916908373ffffffffffffffffffffffffffffffffffffffff160217905550600260009054906101000a900473ffffffffffffffffffffffffffffffffffffffff16600560006101000a81548173ffffffffffffffffffffffffffffffffffffffff021916908373ffffffffffffffffffffffffffffffffffffffff160217905550600460009054906101000a900473ffffffffffffffffffffffffffffffffffffffff16600660006101000a81548173ffffffffffffffffffffffffffffffffffffffff021916908373ffffffffffffffffffffffffffffffffffffffff1602179055503480156101d557600080fd5b5060405161081038038061081083398181016040528101906101f7919061024e565b806080818152505042600781905550600080819055505061027b565b600080fd5b6000819050919050565b61022b81610218565b811461023657600080fd5b50565b60008151905061024881610222565b92915050565b60006020828403121561026457610263610213565b5b600061027284828501610239565b91505092915050565b60805161056c6102a460003960008181610176015281816101d80152610227015261056c6000f3fe608060405234801561001057600080fd5b50600436106100625760003560e01c8063144fa6d7146100675780633f3b3b27146100835780634585e33b146100a157806361bc221a146100bd5780636e04ff0d146100db578063947a36fb1461010c575b600080fd5b610081600480360381019061007c91906102b1565b61012a565b005b61008b61016e565b60405161009891906102f7565b60405180910390f35b6100bb60048036038101906100b69190610377565b610174565b005b6100c56101ca565b6040516100d291906102f7565b60405180910390f35b6100f560048036038101906100f09190610377565b6101d0565b60405161010392919061046f565b60405180910390f35b610114610225565b60405161012191906102f7565b60405180910390f35b80600460006101000a81548173ffffffffffffffffffffffffffffffffffffffff021916908373ffffffffffffffffffffffffffffffffffffffff16021790555050565b60075481565b7f0000000000000000000000000000000000000000000000000000000000000000600754426101a391906104ce565b11156101c6574260078190555060016000546101bf9190610502565b6000819055505b5050565b60005481565b6000606060007f00000000000000000000000000000000000000000000000000000000000000006007544261020591906104ce565b119050806040518060200160405280600081525092509250509250929050565b7f000000000000000000000000000000000000000000000000000000000000000081565b600080fd5b600080fd5b600073ffffffffffffffffffffffffffffffffffffffff82169050919050565b600061027e82610253565b9050919050565b61028e81610273565b811461029957600080fd5b50565b6000813590506102ab81610285565b92915050565b6000602082840312156102c7576102c6610249565b5b60006102d58482850161029c565b91505092915050565b6000819050919050565b6102f1816102de565b82525050565b600060208201905061030c60008301846102e8565b92915050565b600080fd5b600080fd5b600080fd5b60008083601f84011261033757610336610312565b5b8235905067ffffffffffffffff81111561035457610353610317565b5b6020830191508360018202830111156103705761036f61031c565b5b9250929050565b6000806020838503121561038e5761038d610249565b5b600083013567ffffffffffffffff8111156103ac576103ab61024e565b5b6103b885828601610321565b92509250509250929050565b60008115159050919050565b6103d9816103c4565b82525050565b600081519050919050565b600082825260208201905092915050565b60005b838110156104195780820151818401526020810190506103fe565b60008484015250505050565b6000601f19601f8301169050919050565b6000610441826103df565b61044b81856103ea565b935061045b8185602086016103fb565b61046481610425565b840191505092915050565b600060408201905061048460008301856103d0565b81810360208301526104968184610436565b90509392505050565b7f4e487b7100000000000000000000000000000000000000000000000000000000600052601160045260246000fd5b60006104d9826102de565b91506104e4836102de565b92508282039050818111156104fc576104fb61049f565b5b92915050565b600061050d826102de565b9150610518836102de565b92508282019050808211156105305761052f61049f565b5b9291505056fea26469706673582212206ae96033381c58e4ccbbf377eabff0587400f885978b7237eadad5108a7915de64736f6c63430008110033",
  "linkReferences": {},
  "deployedLinkReferences": {}
}